:020000040800F2
:10000000000003208D040008DD040008DD04000862
:10001000DD040008DD040008DD0400080000000025
:10002000000000000000000000000000DD040008E7
:10003000DD04000800000000DD040008DD04000805
:10004000DD040008DD040008DD040008DD0400080C
:10005000DD040008DD040008DD040008DD040008FC
:10006000DD040008DD040008DD040008DD040008EC
:10007000DD040008DD040008DD040008DD040008DC
:10008000DD040008DD040008DD040008DD040008CC
:10009000DD040008DD040008DD040008DD040008BC
:1000A000DD040008DD040008DD040008DD040008AC
:1000B000DD040008DD040008DD040008DD0400089C
:1000C000DD040008DD040008DD040008DD0400088C
:1000D000DD040008DD040008DD040008DD0400087C
:1000E000DD040008DD040008DD040008DD0400086C
:1000F000DD040008DD040008DD040008DD0400085C
:10010000DD040008DD040008DD040008DD0400084B
:10011000DD040008DD040008DD040008DD0400083B
:10012000DD040008DD040008DD040008DD0400082B
:10013000DD040008DD040008DD040008DD0400081B
:10014000DD040008DD040008DD040008DD0400080B
:10015000DD040008DD040008DD040008DD040008FB
:10016000DD040008DD040008DD040008DD040008EB
:10017000DD040008DD040008DD04000800000000C4
:10018000DD040008DD040008DD040008DD040008CB
:10019000DD040008DD040008DD040008DD040008BB
:0C01A000DD040008DD040008DD04000898
:1001AC0010B5054C237833B9044B13B10448AFF3A5
:1001BC0000800123237010BD04000020000000000B
:1001CC002805000808B5034B1BB103490348AFF3DE
:1001DC00008008BD00000000080000202805000871
:1001EC00034AD2F8883043F47003C2F88830704761
:1001FC0000ED00E010B582B000F0DAF800F0FEF887
:10020C0000F01AF91DE0019302E0019B0133019308
:10021C00019A5C4B9A42F8D95B4B1B6913F0400F67
:10022C001CD05A4B01221A7018E0594AD2F81834D3
:10023C0043F08003C2F81834564B01221A70564B07
:10024C001870514B1B6903F04003002B14BF0120A5
:10025C00002003D0504B1B78002BD4D04B4B1B7879
:10026C00002BECD00022494B1A704C4C21780131F8
:10027C004B4B83FB01C30B449B10C3EBC303CB1A47
:10028C00DBB223704249D1F8184444F40004C1F89D
:10029C0018448C6944F400248C6101F500618C696C
:1002AC0044F480348C618C6944F400248C613949A9
:1002BC000A703C490A703C490A703C490A70013B7F
:1002CC00052BBCD801A252F823F000BF370200085E
:1002DC00F1020008030300081503000827030008B7
:1002EC00530300082A4A936943F0080393612D4B8A
:1002FC0001221A70A3E7244A936943F00103936126
:10030C00294B01221A709AE71F4A936943F008039C
:10031C009361264B01221A7091E71D4BD3F81824D8
:10032C0042F40002C3F818249A6942F400229A613C
:10033C0003F500639A6942F480329A619A6942F437
:10034C0000229A617BE7124BD3F8182442F080020A
:10035C00C3F818249A6942F008029A6103F5006305
:10036C009A6942F001029A619A6942F008029A6114
:10037C000123084A13700B4A13700B4A13700B4A73
:10038C0013705CE73F0D03000008024024000020BE
:10039C000000024023000020000000202500002067
:1003AC0093244992220000202100002020000020EC
:1003BC00104AD2F8303843F00203C2F830380E4BF2
:1003CC00D3F8002442F48042C3F80024D3F8082464
:1003DC0042F48042C3F80824D3F80C2422F440429F
:1003EC00C3F80C24D3F8182442F40002C3F81824E0
:1003FC00704700BF00300240000002400C4AD2F8A7
:10040C00303843F00103C2F830380A4B1A6842F016
:10041C0040021A609A6842F040029A60DA6822F050
:10042C00C002DA609A6942F400229A61704700BFF8
:10043C0000300240000002400F4A136B43F00703E8
:10044C0013630E4B1A6842F001021A60DA6822F04C
:10045C000302DA601A6842F040021A60DA6822F08D
:10046C00C002DA601A6822F440521A60DA6842F468
:10047C000052DA60704700BF0038024000080240AA
:10048C00DFF834D00D480E490E4A002302E0D45850
:10049C00C4500433C4188C42F9D30B4A0B4C0023C0
:1004AC0001E013600432A242FBD3FFF799FE00F087
:1004BC0011F8FFF79FFE704700000320000000209A
:1004CC00040000204805000804000020280000203B
:1004DC00FEE7000070B50D4D0D4C641BA4100026FA
:1004EC00A64209D10B4D0C4C00F018F8641BA4105B
:1004FC000026A64205D170BD55F8043B984701363D
:10050C00EEE755F8043B98470136F2E74005000842
:10051C00400500084005000844050008F8B500BF78
:10052C00F8BC08BC9E467047F8B500BFF8BC08BCC8
:04053C009E46704720
:04054000D1010008DD
:04054400AD010008FD
:0405480001000000AE
:040000050800048D5E
:00000001FF
